{
  "contractName": "TasksContract",
  "abi": [
    {
      "inputs": [],
      "stateMutability": "nonpayable",
      "type": "constructor"
    },
    {
      "anonymous": false,
      "inputs": [
        {
          "indexed": false,
          "internalType": "uint256",
          "name": "id",
          "type": "uint256"
        },
        {
          "indexed": false,
          "internalType": "string",
          "name": "description",
          "type": "string"
        },
        {
          "indexed": false,
          "internalType": "address",
          "name": "creator",
          "type": "address"
        },
        {
          "indexed": false,
          "internalType": "address",
          "name": "user1",
          "type": "address"
        },
        {
          "indexed": false,
          "internalType": "address",
          "name": "user2",
          "type": "address"
        },
        {
          "indexed": false,
          "internalType": "uint256",
          "name": "amount",
          "type": "uint256"
        },
        {
          "indexed": false,
          "internalType": "bool",
          "name": "user1Transfer",
          "type": "bool"
        },
        {
          "indexed": false,
          "internalType": "bool",
          "name": "user2Transfer",
          "type": "bool"
        },
        {
          "indexed": false,
          "internalType": "uint256",
          "name": "betBalance",
          "type": "uint256"
        },
        {
          "indexed": false,
          "internalType": "bool",
          "name": "finished",
          "type": "bool"
        },
        {
          "indexed": false,
          "internalType": "string",
          "name": "apuestaUser1",
          "type": "string"
        },
        {
          "indexed": false,
          "internalType": "string",
          "name": "apuestaUser2",
          "type": "string"
        }
      ],
      "name": "BetCreated",
      "type": "event"
    },
    {
      "anonymous": false,
      "inputs": [
        {
          "indexed": false,
          "internalType": "uint256",
          "name": "id",
          "type": "uint256"
        },
        {
          "indexed": false,
          "internalType": "address",
          "name": "user1",
          "type": "address"
        },
        {
          "indexed": false,
          "internalType": "uint256",
          "name": "amount",
          "type": "uint256"
        },
        {
          "indexed": false,
          "internalType": "bool",
          "name": "user1Transfer",
          "type": "bool"
        },
        {
          "indexed": false,
          "internalType": "uint256",
          "name": "betBalance",
          "type": "uint256"
        }
      ],
      "name": "BetInicializated",
      "type": "event"
    },
    {
      "anonymous": false,
      "inputs": [
        {
          "indexed": false,
          "internalType": "uint256",
          "name": "id",
          "type": "uint256"
        },
        {
          "indexed": false,
          "internalType": "string",
          "name": "title",
          "type": "string"
        },
        {
          "indexed": false,
          "internalType": "string",
          "name": "description",
          "type": "string"
        },
        {
          "indexed": false,
          "internalType": "bool",
          "name": "done",
          "type": "bool"
        },
        {
          "indexed": false,
          "internalType": "uint256",
          "name": "createdAt",
          "type": "uint256"
        }
      ],
      "name": "TaskCreated",
      "type": "event"
    },
    {
      "anonymous": false,
      "inputs": [
        {
          "indexed": false,
          "internalType": "uint256",
          "name": "id",
          "type": "uint256"
        },
        {
          "indexed": false,
          "internalType": "bool",
          "name": "done",
          "type": "bool"
        }
      ],
      "name": "TaskToggleDone",
      "type": "event"
    },
    {
      "inputs": [
        {
          "internalType": "uint256",
          "name": "",
          "type": "uint256"
        }
      ],
      "name": "bets",
      "outputs": [
        {
          "internalType": "uint256",
          "name": "id",
          "type": "uint256"
        },
        {
          "internalType": "string",
          "name": "description",
          "type": "string"
        },
        {
          "internalType": "address",
          "name": "creator",
          "type": "address"
        },
        {
          "internalType": "address",
          "name": "user1",
          "type": "address"
        },
        {
          "internalType": "address",
          "name": "user2",
          "type": "address"
        },
        {
          "internalType": "uint256",
          "name": "amount",
          "type": "uint256"
        },
        {
          "internalType": "bool",
          "name": "user1Transfer",
          "type": "bool"
        },
        {
          "internalType": "bool",
          "name": "user2Transfer",
          "type": "bool"
        },
        {
          "internalType": "uint256",
          "name": "betBalance",
          "type": "uint256"
        },
        {
          "internalType": "bool",
          "name": "finished",
          "type": "bool"
        },
        {
          "internalType": "string",
          "name": "apuestaUser1",
          "type": "string"
        },
        {
          "internalType": "string",
          "name": "apuestaUser2",
          "type": "string"
        }
      ],
      "stateMutability": "view",
      "type": "function",
      "constant": true
    },
    {
      "inputs": [],
      "name": "contadorBet",
      "outputs": [
        {
          "internalType": "uint256",
          "name": "",
          "type": "uint256"
        }
      ],
      "stateMutability": "view",
      "type": "function",
      "constant": true
    },
    {
      "inputs": [],
      "name": "contadorTask",
      "outputs": [
        {
          "internalType": "uint256",
          "name": "",
          "type": "uint256"
        }
      ],
      "stateMutability": "view",
      "type": "function",
      "constant": true
    },
    {
      "inputs": [
        {
          "internalType": "uint256",
          "name": "",
          "type": "uint256"
        }
      ],
      "name": "tasks",
      "outputs": [
        {
          "internalType": "uint256",
          "name": "id",
          "type": "uint256"
        },
        {
          "internalType": "string",
          "name": "title",
          "type": "string"
        },
        {
          "internalType": "string",
          "name": "description",
          "type": "string"
        },
        {
          "internalType": "bool",
          "name": "done",
          "type": "bool"
        },
        {
          "internalType": "uint256",
          "name": "createdAt",
          "type": "uint256"
        }
      ],
      "stateMutability": "view",
      "type": "function",
      "constant": true
    },
    {
      "inputs": [
        {
          "internalType": "string",
          "name": "_title",
          "type": "string"
        },
        {
          "internalType": "string",
          "name": "_description",
          "type": "string"
        }
      ],
      "name": "createTask",
      "outputs": [],
      "stateMutability": "nonpayable",
      "type": "function"
    },
    {
      "inputs": [
        {
          "internalType": "string",
          "name": "_description",
          "type": "string"
        }
      ],
      "name": "createBet",
      "outputs": [],
      "stateMutability": "payable",
      "type": "function",
      "payable": true
    },
    {
      "inputs": [
        {
          "internalType": "uint256",
          "name": "_id",
          "type": "uint256"
        }
      ],
      "name": "toggleDone",
      "outputs": [],
      "stateMutability": "nonpayable",
      "type": "function"
    },
    {
      "inputs": [
        {
          "internalType": "uint256",
          "name": "_id",
          "type": "uint256"
        },
        {
          "internalType": "uint256",
          "name": "_amount",
          "type": "uint256"
        },
        {
          "internalType": "string",
          "name": "_apuestaUser1",
          "type": "string"
        }
      ],
      "name": "iniciarApuesta",
      "outputs": [],
      "stateMutability": "payable",
      "type": "function",
      "payable": true
    },
    {
      "inputs": [
        {
          "internalType": "uint256",
          "name": "_id",
          "type": "uint256"
        },
        {
          "internalType": "uint256",
          "name": "_amount",
          "type": "uint256"
        },
        {
          "internalType": "string",
          "name": "_apuestaUser2",
          "type": "string"
        }
      ],
      "name": "emparejarApuesta",
      "outputs": [],
      "stateMutability": "payable",
      "type": "function",
      "payable": true
    },
    {
      "inputs": [
        {
          "internalType": "uint256",
          "name": "_id",
          "type": "uint256"
        },
        {
          "internalType": "address payable",
          "name": "_winner",
          "type": "address"
        }
      ],
      "name": "finalizarApuesta",
      "outputs": [],
      "stateMutability": "payable",
      "type": "function",
      "payable": true
    }
  ],
  "bytecode": "0x608060405260008055600060015534801561001957600080fd5b506128e7806100296000396000f3fe6080604052600436106100915760003560e01c8063999e7c2211610059578063999e7c221461019e578063b3a23578146101ba578063d81ef739146101d6578063ef03542d146101ff578063fff7148c1461021b57610091565b806322af00fa14610096578063292a4585146100de578063465f8356146101075780638d9776721461013257806390eec22a14610173575b600080fd5b3480156100a257600080fd5b506100bd60048036038101906100b89190611cea565b610237565b6040516100d59c9b9a99989796959493929190611e12565b60405180910390f35b3480156100ea57600080fd5b5061010560048036038101906101009190612016565b6104b6565b005b34801561011357600080fd5b5061011c6105b6565b604051610129919061208e565b60405180910390f35b34801561013e57600080fd5b5061015960048036038101906101549190611cea565b6105bc565b60405161016a9594939291906120a9565b60405180910390f35b34801561017f57600080fd5b5061018861070f565b604051610195919061208e565b60405180910390f35b6101b860048036038101906101b3919061210a565b610715565b005b6101d460048036038101906101cf9190612179565b610d54565b005b3480156101e257600080fd5b506101fd60048036038101906101f89190611cea565b61102e565b005b6102196004803603810190610214919061210a565b611270565b005b61023560048036038101906102309190612200565b611864565b005b60036020528060005260406000206000915090508060000154908060010180546102609061226f565b80601f016020809104026020016040519081016040528092919081815260200182805461028c9061226f565b80156102d95780601f106102ae576101008083540402835291602001916102d9565b820191906000526020600020905b8154815290600101906020018083116102bc57829003601f168201915b5050505050908060020160009054906101000a900473ffffffffffffffffffffffffffffffffffffffff16908060030160009054906101000a900473ffffffffffffffffffffffffffffffffffffffff16908060040160009054906101000a900473ffffffffffffffffffffffffffffffffffffffff16908060050154908060060160009054906101000a900460ff16908060060160019054906101000a900460ff16908060070154908060080160009054906101000a900460ff16908060090180546103a59061226f565b80601f01602080910402602001604051908101604052809291908181526020018280546103d19061226f565b801561041e5780601f106103f35761010080835404028352916020019161041e565b820191906000526020600020905b81548152906001019060200180831161040157829003601f168201915b50505050509080600a0180546104339061226f565b80601f016020809104026020016040519081016040528092919081815260200182805461045f9061226f565b80156104ac5780601f10610481576101008083540402835291602001916104ac565b820191906000526020600020905b81548152906001019060200180831161048f57829003601f168201915b505050505090508c565b6000808154809291906104c8906122cf565b91905055506040518060a00160405280600054815260200183815260200182815260200160001515815260200142815250600260008054815260200190815260200160002060008201518160000155602082015181600101908161052c91906124c3565b50604082015181600201908161054291906124c3565b5060608201518160030160006101000a81548160ff021916908315150217905550608082015181600401559050507f6549102bed7d1bb5ec529ee14e2ca60ffc1f47f66d4cc6ca713220613cc64c2560005483836000426040516105aa9594939291906120a9565b60405180910390a15050565b60015481565b60026020528060005260406000206000915090508060000154908060010180546105e59061226f565b80601f01602080910402602001604051908101604052809291908181526020018280546106119061226f565b801561065e5780601f106106335761010080835404028352916020019161065e565b820191906000526020600020905b81548152906001019060200180831161064157829003601f168201915b5050505050908060020180546106739061226f565b80601f016020809104026020016040519081016040528092919081815260200182805461069f9061226f565b80156106ec5780601f106106c1576101008083540402835291602001916106ec565b820191906000526020600020905b8154815290600101906020018083116106cf57829003601f168201915b5050505050908060030160009054906101000a900460ff16908060040154905085565b60005481565b60006003600085815260200190815260200160002060405180610180016040529081600082015481526020016001820180546107509061226f565b80601f016020809104026020016040519081016040528092919081815260200182805461077c9061226f565b80156107c95780601f1061079e576101008083540402835291602001916107c9565b820191906000526020600020905b8154815290600101906020018083116107ac57829003601f168201915b505050505081526020016002820160009054906101000a900473ffffffffffffffffffffffffffffffffffffffff1673ffffffffffffffffffffffffffffffffffffffff1673ffffffffffffffffffffffffffffffffffffffff1681526020016003820160009054906101000a900473ffffffffffffffffffffffffffffffffffffffff1673ffffffffffffffffffffffffffffffffffffffff1673ffffffffffffffffffffffffffffffffffffffff1681526020016004820160009054906101000a900473ffffffffffffffffffffffffffffffffffffffff1673ffffffffffffffffffffffffffffffffffffffff1673ffffffffffffffffffffffffffffffffffffffff168152602001600582015481526020016006820160009054906101000a900460ff161515151581526020016006820160019054906101000a900460ff16151515158152602001600782015481526020016008820160009054906101000a900460ff161515151581526020016009820180546109499061226f565b80601f01602080910402602001604051908101604052809291908181526020018280546109759061226f565b80156109c25780601f10610997576101008083540402835291602001916109c2565b820191906000526020600020905b8154815290600101906020018083116109a557829003601f168201915b50505050508152602001600a820180546109db9061226f565b80601f0160208091040260200160405190810160405280929190818152602001828054610a079061226f565b8015610a545780601f10610a2957610100808354040283529160200191610a54565b820191906000526020600020905b815481529060010190602001808311610a3757829003601f168201915b505050505081525050905033816080019073ffffffffffffffffffffffffffffffffffffffff16908173ffffffffffffffffffffffffffffffffffffffff1681525050348160a001818152505060018160e001901515908115158152505082816101000151610ac39190612595565b81610100018181525050818161016001819052503373ffffffffffffffffffffffffffffffffffffffff16816040015173ffffffffffffffffffffffffffffffffffffffff161480610b4457503373ffffffffffffffffffffffffffffffffffffffff16816060015173ffffffffffffffffffffffffffffffffffffffff16145b15610b4e57600080fd5b8060036000868152602001908152602001600020600082015181600001556020820151816001019081610b8191906124c3565b5060408201518160020160006101000a81548173ffffffffffffffffffffffffffffffffffffffff021916908373ffffffffffffffffffffffffffffffffffffffff16021790555060608201518160030160006101000a81548173ffffffffffffffffffffffffffffffffffffffff021916908373ffffffffffffffffffffffffffffffffffffffff16021790555060808201518160040160006101000a81548173ffffffffffffffffffffffffffffffffffffffff021916908373ffffffffffffffffffffffffffffffffffffffff16021790555060a0820151816005015560c08201518160060160006101000a81548160ff02191690831515021790555060e08201518160060160016101000a81548160ff02191690831515021790555061010082015181600701556101208201518160080160006101000a81548160ff021916908315150217905550610140820151816009019081610ce391906124c3565b5061016082015181600a019081610cfa91906124c3565b509050507f8d03fd1a501a756b218ef587a69c56dfd8f083f2435d713b35f9a051e20bde4a8482606001518360a001518460c00151856101000151604051610d469594939291906125c9565b60405180910390a150505050565b60016000815480929190610d67906122cf565b919050555060405180610180016040528060015481526020018281526020013373ffffffffffffffffffffffffffffffffffffffff168152602001600073ffffffffffffffffffffffffffffffffffffffff168152602001600073ffffffffffffffffffffffffffffffffffffffff1681526020013481526020016001151581526020016000151581526020016000815260200160001515815260200160405180602001604052806000815250815260200160405180602001604052806000815250815250600360006001548152602001908152602001600020600082015181600001556020820151816001019081610e6091906124c3565b5060408201518160020160006101000a81548173ffffffffffffffffffffffffffffffffffffffff021916908373ffffffffffffffffffffffffffffffffffffffff16021790555060608201518160030160006101000a81548173ffffffffffffffffffffffffffffffffffffffff021916908373ffffffffffffffffffffffffffffffffffffffff16021790555060808201518160040160006101000a81548173ffffffffffffffffffffffffffffffffffffffff021916908373ffffffffffffffffffffffffffffffffffffffff16021790555060a0820151816005015560c08201518160060160006101000a81548160ff02191690831515021790555060e08201518160060160016101000a81548160ff02191690831515021790555061010082015181600701556101208201518160080160006101000a81548160ff021916908315150217905550610140820151816009019081610fc291906124c3565b5061016082015181600a019081610fd991906124c3565b509050507ff64662748a469c282a175f5c1bda5dd1f19e64f8ef0747db567579a9bf9f7cf36001548233333334600160008060006040516110239a9998979695949392919061267d565b60405180910390a150565b6000600260008381526020019081526020016000206040518060a0016040529081600082015481526020016001820180546110689061226f565b80601f01602080910402602001604051908101604052809291908181526020018280546110949061226f565b80156110e15780601f106110b6576101008083540402835291602001916110e1565b820191906000526020600020905b8154815290600101906020018083116110c457829003601f168201915b505050505081526020016002820180546110fa9061226f565b80601f01602080910402602001604051908101604052809291908181526020018280546111269061226f565b80156111735780601f1061114857610100808354040283529160200191611173565b820191906000526020600020905b81548152906001019060200180831161115657829003601f168201915b505050505081526020016003820160009054906101000a900460ff16151515158152602001600482015481525050905080606001511581606001901515908115158152505080600260008481526020019081526020016000206000820151816000015560208201518160010190816111eb91906124c3565b50604082015181600201908161120191906124c3565b5060608201518160030160006101000a81548160ff021916908315150217905550608082015181600401559050507f389dee00d487dd41dd5bf0f43eeaa5b663b3af022d52368df89d388150295f45828260600151604051611264929190612748565b60405180910390a15050565b60006003600085815260200190815260200160002060405180610180016040529081600082015481526020016001820180546112ab9061226f565b80601f01602080910402602001604051908101604052809291908181526020018280546112d79061226f565b80156113245780601f106112f957610100808354040283529160200191611324565b820191906000526020600020905b81548152906001019060200180831161130757829003601f168201915b505050505081526020016002820160009054906101000a900473ffffffffffffffffffffffffffffffffffffffff1673ffffffffffffffffffffffffffffffffffffffff1673ffffffffffffffffffffffffffffffffffffffff1681526020016003820160009054906101000a900473ffffffffffffffffffffffffffffffffffffffff1673ffffffffffffffffffffffffffffffffffffffff1673ffffffffffffffffffffffffffffffffffffffff1681526020016004820160009054906101000a900473ffffffffffffffffffffffffffffffffffffffff1673ffffffffffffffffffffffffffffffffffffffff1673ffffffffffffffffffffffffffffffffffffffff168152602001600582015481526020016006820160009054906101000a900460ff161515151581526020016006820160019054906101000a900460ff16151515158152602001600782015481526020016008820160009054906101000a900460ff161515151581526020016009820180546114a49061226f565b80601f01602080910402602001604051908101604052809291908181526020018280546114d09061226f565b801561151d5780601f106114f25761010080835404028352916020019161151d565b820191906000526020600020905b81548152906001019060200180831161150057829003601f168201915b50505050508152602001600a820180546115369061226f565b80601f01602080910402602001604051908101604052809291908181526020018280546115629061226f565b80156115af5780601f10611584576101008083540402835291602001916115af565b820191906000526020600020905b81548152906001019060200180831161159257829003601f168201915b505050505081525050905033816060019073ffffffffffffffffffffffffffffffffffffffff16908173ffffffffffffffffffffffffffffffffffffffff1681525050348160a001818152505060018160c00190151590811515815250508281610100018181525050818161014001819052503373ffffffffffffffffffffffffffffffffffffffff16816040015173ffffffffffffffffffffffffffffffffffffffff160361165e57600080fd5b806003600086815260200190815260200160002060008201518160000155602082015181600101908161169191906124c3565b5060408201518160020160006101000a81548173ffffffffffffffffffffffffffffffffffffffff021916908373ffffffffffffffffffffffffffffffffffffffff16021790555060608201518160030160006101000a81548173ffffffffffffffffffffffffffffffffffffffff021916908373ffffffffffffffffffffffffffffffffffffffff16021790555060808201518160040160006101000a81548173ffffffffffffffffffffffffffffffffffffffff021916908373ffffffffffffffffffffffffffffffffffffffff16021790555060a0820151816005015560c08201518160060160006101000a81548160ff02191690831515021790555060e08201518160060160016101000a81548160ff02191690831515021790555061010082015181600701556101208201518160080160006101000a81548160ff0219169083151502179055506101408201518160090190816117f391906124c3565b5061016082015181600a01908161180a91906124c3565b509050507f8d03fd1a501a756b218ef587a69c56dfd8f083f2435d713b35f9a051e20bde4a8482606001518360a001518460c001518561010001516040516118569594939291906125c9565b60405180910390a150505050565b6000600360008481526020019081526020016000209050600115158160060160009054906101000a900460ff1615151480156118b55750600115158160060160019054906101000a900460ff161515145b6118be57600080fd5b6000600282600501546118d19190612771565b90503373ffffffffffffffffffffffffffffffffffffffff168260030160009054906101000a900473ffffffffffffffffffffffffffffffffffffffff1673ffffffffffffffffffffffffffffffffffffffff16148061198057503373ffffffffffffffffffffffffffffffffffffffff168260040160009054906101000a900473ffffffffffffffffffffffffffffffffffffffff1673ffffffffffffffffffffffffffffffffffffffff16145b1561198a57600080fd5b8273ffffffffffffffffffffffffffffffffffffffff166108fc829081150290604051600060405180830381858888f193505050501580156119d0573d6000803e3d6000fd5b5081600360008681526020019081526020016000206000820154816000015560018201816001019081611a0391906127c9565b506002820160009054906101000a900473ffffffffffffffffffffffffffffffffffffffff168160020160006101000a81548173ffffffffffffffffffffffffffffffffffffffff021916908373ffffffffffffffffffffffffffffffffffffffff1602179055506003820160009054906101000a900473ffffffffffffffffffffffffffffffffffffffff168160030160006101000a81548173ffffffffffffffffffffffffffffffffffffffff021916908373ffffffffffffffffffffffffffffffffffffffff1602179055506004820160009054906101000a900473ffffffffffffffffffffffffffffffffffffffff168160040160006101000a81548173ffffffffffffffffffffffffffffffffffffffff021916908373ffffffffffffffffffffffffffffffffffffffff160217905550600582015481600501556006820160009054906101000a900460ff168160060160006101000a81548160ff0219169083151502179055506006820160019054906101000a900460ff168160060160016101000a81548160ff021916908315150217905550600782015481600701556008820160009054906101000a900460ff168160080160006101000a81548160ff02191690831515021790555060098201816009019081611be891906127c9565b50600a820181600a019081611bfd91906127c9565b5090505060018260080160006101000a81548160ff0219169083151502179055507f8d03fd1a501a756b218ef587a69c56dfd8f083f2435d713b35f9a051e20bde4a848360030160009054906101000a900473ffffffffffffffffffffffffffffffffffffffff1684600501548560060160009054906101000a900460ff168660070154604051611c929594939291906125c9565b60405180910390a150505050565b6000604051905090565b600080fd5b600080fd5b6000819050919050565b611cc781611cb4565b8114611cd257600080fd5b50565b600081359050611ce481611cbe565b92915050565b600060208284031215611d0057611cff611caa565b5b6000611d0e84828501611cd5565b91505092915050565b611d2081611cb4565b82525050565b600081519050919050565b600082825260208201905092915050565b60005b83811015611d60578082015181840152602081019050611d45565b60008484015250505050565b6000601f19601f8301169050919050565b6000611d8882611d26565b611d928185611d31565b9350611da2818560208601611d42565b611dab81611d6c565b840191505092915050565b600073ffffffffffffffffffffffffffffffffffffffff82169050919050565b6000611de182611db6565b9050919050565b611df181611dd6565b82525050565b60008115159050919050565b611e0c81611df7565b82525050565b600061018082019050611e28600083018f611d17565b8181036020830152611e3a818e611d7d565b9050611e49604083018d611de8565b611e56606083018c611de8565b611e63608083018b611de8565b611e7060a083018a611d17565b611e7d60c0830189611e03565b611e8a60e0830188611e03565b611e98610100830187611d17565b611ea6610120830186611e03565b818103610140830152611eb98185611d7d565b9050818103610160830152611ece8184611d7d565b90509d9c50505050505050505050505050565b600080fd5b600080fd5b7f4e487b7100000000000000000000000000000000000000000000000000000000600052604160045260246000fd5b611f2382611d6c565b810181811067ffffffffffffffff82111715611f4257611f41611eeb565b5b80604052505050565b6000611f55611ca0565b9050611f618282611f1a565b919050565b600067ffffffffffffffff821115611f8157611f80611eeb565b5b611f8a82611d6c565b9050602081019050919050565b82818337600083830152505050565b6000611fb9611fb484611f66565b611f4b565b905082815260208101848484011115611fd557611fd4611ee6565b5b611fe0848285611f97565b509392505050565b600082601f830112611ffd57611ffc611ee1565b5b813561200d848260208601611fa6565b91505092915050565b6000806040838503121561202d5761202c611caa565b5b600083013567ffffffffffffffff81111561204b5761204a611caf565b5b61205785828601611fe8565b925050602083013567ffffffffffffffff81111561207857612077611caf565b5b61208485828601611fe8565b9150509250929050565b60006020820190506120a36000830184611d17565b92915050565b600060a0820190506120be6000830188611d17565b81810360208301526120d08187611d7d565b905081810360408301526120e48186611d7d565b90506120f36060830185611e03565b6121006080830184611d17565b9695505050505050565b60008060006060848603121561212357612122611caa565b5b600061213186828701611cd5565b935050602061214286828701611cd5565b925050604084013567ffffffffffffffff81111561216357612162611caf565b5b61216f86828701611fe8565b9150509250925092565b60006020828403121561218f5761218e611caa565b5b600082013567ffffffffffffffff8111156121ad576121ac611caf565b5b6121b984828501611fe8565b91505092915050565b60006121cd82611db6565b9050919050565b6121dd816121c2565b81146121e857600080fd5b50565b6000813590506121fa816121d4565b92915050565b6000806040838503121561221757612216611caa565b5b600061222585828601611cd5565b9250506020612236858286016121eb565b9150509250929050565b7f4e487b7100000000000000000000000000000000000000000000000000000000600052602260045260246000fd5b6000600282049050600182168061228757607f821691505b60208210810361229a57612299612240565b5b50919050565b7f4e487b7100000000000000000000000000000000000000000000000000000000600052601160045260246000fd5b60006122da82611cb4565b91507fffffffffffffffffffffffffffffffffffffffffffffffffffffffffffffffff820361230c5761230b6122a0565b5b600182019050919050565b60008190508160005260206000209050919050565b60006020601f8301049050919050565b600082821b905092915050565b6000600883026123797fffffffffffffffffffffffffffffffffffffffffffffffffffffffffffffffff8261233c565b612383868361233c565b95508019841693508086168417925050509392505050565b6000819050919050565b60006123c06123bb6123b684611cb4565b61239b565b611cb4565b9050919050565b6000819050919050565b6123da836123a5565b6123ee6123e6826123c7565b848454612349565b825550505050565b600090565b6124036123f6565b61240e8184846123d1565b505050565b5b81811015612432576124276000826123fb565b600181019050612414565b5050565b601f8211156124775761244881612317565b6124518461232c565b81016020851015612460578190505b61247461246c8561232c565b830182612413565b50505b505050565b600082821c905092915050565b600061249a6000198460080261247c565b1980831691505092915050565b60006124b38383612489565b9150826002028217905092915050565b6124cc82611d26565b67ffffffffffffffff8111156124e5576124e4611eeb565b5b6124ef825461226f565b6124fa828285612436565b600060209050601f83116001811461252d576000841561251b578287015190505b61252585826124a7565b86555061258d565b601f19841661253b86612317565b60005b828110156125635784890151825560018201915060208501945060208101905061253e565b86831015612580578489015161257c601f891682612489565b8355505b6001600288020188555050505b505050505050565b60006125a082611cb4565b91506125ab83611cb4565b92508282019050808211156125c3576125c26122a0565b5b92915050565b600060a0820190506125de6000830188611d17565b6125eb6020830187611de8565b6125f86040830186611d17565b6126056060830185611e03565b6126126080830184611d17565b9695505050505050565b6000819050919050565b600061264161263c6126378461261c565b61239b565b611cb4565b9050919050565b61265181612626565b82525050565b50565b6000612667600083611d31565b915061267282612657565b600082019050919050565b600061018082019050612693600083018d611d17565b81810360208301526126a5818c611d7d565b90506126b4604083018b611de8565b6126c1606083018a611de8565b6126ce6080830189611de8565b6126db60a0830188611d17565b6126e860c0830187611e03565b6126f560e0830186611e03565b612703610100830185612648565b612711610120830184611e03565b8181036101408301526127238161265a565b90508181036101608301526127378161265a565b90509b9a5050505050505050505050565b600060408201905061275d6000830185611d17565b61276a6020830184611e03565b9392505050565b600061277c82611cb4565b915061278783611cb4565b925082820261279581611cb4565b915082820484148315176127ac576127ab6122a0565b5b5092915050565b6000815490506127c28161226f565b9050919050565b8181036127d75750506128af565b6127e0826127b3565b67ffffffffffffffff8111156127f9576127f8611eeb565b5b612803825461226f565b61280e828285612436565b6000601f83116001811461283d576000841561282b578287015490505b61283585826124a7565b8655506128a8565b601f19841661284b87612317565b965061285686612317565b60005b8281101561287e57848901548255600182019150600185019450602081019050612859565b8683101561289b5784890154612897601f891682612489565b8355505b6001600288020188555050505b5050505050505b56fea26469706673582212209c73b10e8d1b68d4afb1f936e51088ab3d7f51e02b5de70b878228eeb812bca164736f6c63430008110033",
  "immutableReferences": {},
  "source": "// SPDX-License-Identifier: MIT\r\npragma solidity ^0.8.17;\r\n\r\ncontract TasksContract {\r\n    uint256 public contadorTask = 0;\r\n    uint256 public contadorBet = 0;\r\n\r\n    constructor() {\r\n        // createTask(\"Fase 1 de grupos\", \"Mexico vs Qatar\");\r\n    }\r\n\r\n    event TaskCreated(\r\n        uint id,\r\n        string title,\r\n        string description,\r\n        bool done,\r\n        uint createdAt\r\n    );\r\n\r\n    event BetCreated(\r\n        uint id,\r\n        string description,\r\n        address creator,\r\n        address user1,\r\n        address user2,\r\n        uint amount,\r\n        bool user1Transfer,\r\n        bool user2Transfer,\r\n        uint betBalance,\r\n        bool finished,\r\n        string apuestaUser1,\r\n        string apuestaUser2\r\n    );\r\n\r\n    event TaskToggleDone(uint id, bool done);\r\n    event BetInicializated(uint id, address user1, uint amount, bool user1Transfer, uint betBalance);\r\n    \r\n    struct Task {\r\n        uint256 id;\r\n        string title;\r\n        string description;\r\n        bool done;\r\n        uint256 createdAt;\r\n    }\r\n\r\n    struct Bet {\r\n        uint256 id;\r\n        string description;\r\n        address creator;\r\n        address user1;\r\n        address user2;\r\n        uint amount;\r\n        bool user1Transfer;\r\n        bool user2Transfer;\r\n        uint betBalance;\r\n        bool finished;\r\n        string apuestaUser1;\r\n        string apuestaUser2;\r\n    }\r\n\r\n    mapping(uint256 => Task) public tasks;\r\n    mapping(uint256 => Bet) public bets;\r\n\r\n    function createTask(string memory _title, string memory _description)\r\n        public\r\n    {\r\n        contadorTask++;\r\n        tasks[contadorTask] = Task(\r\n            contadorTask,\r\n            _title,\r\n            _description,\r\n            false,\r\n            block.timestamp\r\n        );\r\n        emit TaskCreated(contadorTask, _title, _description, false, block.timestamp);\r\n    }\r\n\r\n    function createBet(string memory _description)payable\r\n    public\r\n    {\r\n        contadorBet++;\r\n        bets[contadorBet] = Bet(\r\n            contadorBet,\r\n            _description,\r\n            msg.sender,\r\n            0x0000000000000000000000000000000000000000,\r\n            0x0000000000000000000000000000000000000000,\r\n            msg.value,\r\n            true,\r\n            false,\r\n            0,\r\n            false,\r\n            \"\",\r\n            \"\"\r\n        );\r\n        emit BetCreated((contadorBet), _description, msg.sender, msg.sender, msg.sender, msg.value, true, false, 0, false, \"\", \"\");\r\n    }\r\n\r\n    function toggleDone(uint256 _id) public {\r\n        Task memory _task = tasks[_id];\r\n        _task.done = !_task.done;\r\n        tasks[_id] = _task;\r\n        emit TaskToggleDone(_id, _task.done);\r\n    }\r\n\r\n    function iniciarApuesta(uint256 _id, uint _amount, string memory _apuestaUser1) public payable\r\n    {\r\n        Bet memory _bet = bets[_id];\r\n        _bet.user1 = msg.sender;\r\n        //_bet.amount = _amount;\r\n        _bet.amount = msg.value;\r\n        _bet.user1Transfer = true;\r\n        _bet.betBalance = _amount;\r\n        _bet.apuestaUser1 = _apuestaUser1;\r\n        if(_bet.creator == msg.sender) {\r\n            revert();\r\n        } else {\r\n            bets[_id] = _bet;\r\n            emit BetInicializated(_id, _bet.user1, _bet.amount, _bet.user1Transfer, _bet.betBalance);\r\n        }\r\n    }\r\n\r\n    function emparejarApuesta(uint256 _id, uint _amount, string memory _apuestaUser2) public payable\r\n    {\r\n        Bet memory _bet = bets[_id];\r\n        _bet.user2 = msg.sender;\r\n        //_bet.amount = _amount;\r\n        _bet.amount = msg.value;\r\n        _bet.user2Transfer = true;\r\n        _bet.betBalance = _bet.betBalance + _amount;\r\n        _bet.apuestaUser2 = _apuestaUser2;\r\n        if(_bet.creator == msg.sender || _bet.user1 == msg.sender) {\r\n            revert();\r\n        } else {\r\n            bets[_id] = _bet;\r\n            emit BetInicializated(_id, _bet.user1, _bet.amount, _bet.user1Transfer, _bet.betBalance);\r\n        }\r\n    }\r\n\r\n    function finalizarApuesta(uint256 _id, address payable _winner) public payable\r\n    {\r\n        Bet storage _bet = bets[_id];\r\n        require(_bet.user1Transfer == true && _bet.user2Transfer == true);\r\n        uint amount = _bet.amount * 2;\r\n        if(_bet.user1 == msg.sender || _bet.user2 == msg.sender) {\r\n            revert();\r\n        } else {\r\n            _winner.transfer(amount);\r\n            bets[_id] = _bet;\r\n            _bet.finished = true;\r\n            emit BetInicializated(_id, _bet.user1, _bet.amount, _bet.user1Transfer, _bet.betBalance);\r\n        }\r\n    }\r\n}\r\n",
  "sourcePath": "C:\\Users\\Elio Raymundo\\Documents\\UMG\\SEMESTRE 8\\Arqui\\AppApuestas\\Apuestas\\contracts\\TasksContract.sol",
  "compiler": {
    "name": "solc",
    "version": "0.8.17+commit.8df45f5f.Emscripten.clang"
  },
  "schemaVersion": "3.4.10",
  "updatedAt": "2022-10-28T07:23:32.067Z",
  "networkType": "ethereum",
  "devdoc": {
    "kind": "dev",
    "methods": {},
    "version": 1
  },
  "userdoc": {
    "kind": "user",
    "methods": {},
    "version": 1
  }
}